S00E0000436F757273652E73726563A5
S11300000C9434000C9451000C9451000C94510045
S11300100C9451000C9451000C9451000C94510018
S11300200C9451000C9451000C9451000C94510008
S11300300C9451000C9451000C9451000C945100F8
S11300400C94C9030C9451000C9451000C9451006D
S11300500C9451000C9451000C9451000C945100D8
S11300600C9451000C94510011241FBECFEFD8E022
S1130070DEBFCDBF11E0A0E0B1E0EEE4FAE002C0E3
S113008005900D92A23BB107D9F721E0A2EBB1E0B4
S113009001C01D92A63CB207E1F70E9455030C94DF
S11300A025050C940000E2EBF1E0808181708083EF
S11300B0A3EBB1E08C91817080628C93A4EBB1E0EE
S11300C08C91817080648C9380E091E0948383832D
S11300D0A7EBB1E08C91817080668C93A8EBB1E0C2
S11300E08C91817080688C93A9EBB1E08C918170C4
S11300F0806A8C9385E091E091878087ACEBB1E0D6
S11301008C918170806C8C93ADEBB1E08C91817E8D
S1130110806E8C93AEEBB1E08C91817082608C9395
S11301208AE091E096878587A1ECB1E08C9181709B
S1130130826080628C93A2ECB1E08C9181708260C9
S113014080648C93A3ECB1E08C91817082608066B2
S11301508C938FE091E0938B828B08954423D1F0AC
S1130160FC013081FB012081321316C0FC01319661
S1130170DB011196415050E04F5F5F4F480F591F0C
S113018004C021919D91291309C0E417F507C9F70B
S113019081E0089581E0089580E0089580E0089565
S11301A084B1876084B985B1887F85B92398249800
S11301B087B18F6387B918B88AB180678AB98AB161
S11301C0807F8AB98BB18F678BB90895EEE6F0E032
S11301D080818160808385B5846085BD089580FFBA
S11301E002C0289A01C0289881FF02C0299A01C040
S11301F0299882FF02C02A9A08952A980895EF92B6
S1130200FF920F931F93CF93DF93C82FD0E07E010B
S1130210EE0CFF1CEE0CFF1CEC0EFD1E87010E54B1
S11302201E4FF80180818295869587700E94EF00A9
S113023083B190E0F801208126952F702D5F02C0D4
S1130240959587952A95E2F7F1E08F27182F11707D
S1130250A7014D545E4F7A01FA01808182958695FB
S113026087700E94EF0083B1282F30E0F70190815E
S113027096959F709D5FA90102C0559547959A95E3
S1130280E2F740FF1260CE01880F991F880F991F73
S1130290C80FD91FCC54DE4F88818295869587700C
S11302A00E94EF0083B1282F30E0888186958F70FB
S11302B08D5FF90102C0F595E7958A95E2F7E0FDB7
S11302C01460812FDF91CF911F910F91FF90EF90D8
S11302D00895CF93DF9370E0660F771F660F771F43
S11302E022E030E0A82FB0E0C1E0D0E0AD01062E5E
S11302F002C0559547950A94E2F740FF0BC088B1B8
S1130300AE01022E02C0440F551F0A94E2F7482B97
S113031048B90CC048B1FE01022E02C0EE0FFF1F07
S11303200A94E2F79E2F9095942398B96F5F7F4FBC
S11303302F5F3F4F26303105C9F6DF91CF910895E5
S1130340419A0E946901419881E28A95F1F700007F
S11303500895CF93C82F61E00E94A00160E08C2F24
S11303600E94A001CF91089581E00E94A9018BE72A
S113037092E90197F1F700C000000895409A0E94A5
S1130380A90140980895EF92FF920F931F93CF9382
S1130390DF937C01162F423031F0433031F041308D
S11303A029F4205C03C02C5E01C02C5A822F806883
S11303B00E94A901112371F0E7011150012F10E0EF
S11303C00F5F1F4F0E0D1F1D89910E94BE01C017A4
S11303D0D107D1F7DF91CF911F910F91FF90EF904B
S11303E008950F931F93CF93C0E004E111E081E3DC
S11303F08C0FF801848320E04C2F64E1C8010E9433
S1130400C301CF5FC43099F7CF911F910F91089525
S11304100F931F93CF93DF938B01880F880F880F5F
S113042080640E94A901E801085F1F4F89910E941E
S1130430BE01C017D107D1F7DF91CF911F910F9162
S1130440089587EA91E60197F1F700C0000060E0A3
S113045083E00E94A00191E29A95F1F7000060E028
S113046083E00E94A00181E28A95F1F7000060E038
S113047083E00E94A00191E29A95F1F7000060E008
S113048082E00E94A00181E28A95F1F7000088E2EF
S11304900E94A90188E00E94A90181E00E94A901AB
S11304A08BE792E90197F1F700C0000086E00E9413
S11304B0A9018CE00E94A9016AEA71E080E00E942F
S11304C0080262EA71E081E00E9408026AE971E0D0
S11304D082E00E9408020E94F1010895FA0161304D
S11304E069F028F0623089F06330B1F0089520E0BB
S11304F0482F61E0CF010E94C301089529E0482FED
S113050061E0CF010E94C30108952EE0482F61E00D
S1130510CF010E94C301089523E1482F61E0CF0178
S11305200E94C30108952F923F924F925F926F925F
S11305308F929F92AF92BF92CF92DF92EF92FF92EF
S11305400F931F93CF93DF93C0E0D0E00F2EF9E217
S1130550EF2EF1E0FF2EF02D0F2EFDE2AF2EF1E095
S1130560BF2EF02D0F2EFFE28F2EF1E09F2EF02DE7
S11305700F2EF8E9CF2EF1E0DF2EF02D01E0212C33
S11305806C2E8C2F0E94FF00182F8170582E10FDA6
S113059005C0EBE2F1E04E2F5F2F02C04E2D5F2D20
S11305A061E0862D0E946E02F12FF2704F2E11FD34
S11305B005C08BE291E0482F592F02C04E2D5F2DCC
S11305C062E0862D0E946E02912F9470392E12FDE6
S11305D003C0482D592D02C04A2D5B2D63E0862DA2
S11305E00E946E02CE01FE01EE0FFF1FEE0FFF1FF1
S11305F0EC0FFD1FEE54FE4F3081232F217030FF8E
S113060002C0511021C0FC01EE0FFF1FEE0FFF1FAF
S1130610E80FF91FED54FE4F3081432F417030FF36
S113062002C0411011C0FC01EE0FFF1FEE0FFF1FAF
S11306308E0F9F1FFC01EC54FE4F9081392F3170B7
S113064090FF0BC0332049F082E0F6018083A601BD
S113065060E0862D0E946E0211C0222329F04423FB
S113066029F081E0832703C0802F01C0802FF60189
S11306708083A60160E0862D0E946E022196C4301C
S1130680D10509F07DCFDF91CF911F910F91FF909C
S1130690EF90DF90CF90BF90AF909F908F906F902E
S11306A05F904F903F902F9008950E94D0000E9439
S11306B0E60082EB91E00E9453000E94210220E0B8
S11306C030E0C901880F991F880F991F820F931F6B
S11306D0FC01EE54FE4F40814E7F4083FC01ED54FB
S11306E0FE4F40814E7F4083FC01EC54FE4F8081DD
S11306F08E7F80832F5F3F4F2430310511F7F894AC
S11307000E9493027894FBCFCF93DF938BB18067E1
S11307108BB9E4E0F0E060E080E0A1E0B0E02BB170
S1130720ED010E2E02C0CC0FDD1F0A94E2F79C2FC0
S1130730909529232BB991E3960F40E050E029B11D
S113074030E0042E02C0359527950A94E2F720FD87
S11307500BC0433041F4613021F0A0F06230A1F0CD
S113076003C080E307C0892F4F5F5F4F9D5F443014
S1130770510529F79BB19C2B9BB96F5F3196633070
S113078071F604C08AE2F6CF83E2F4CFDF91CF9111
S113079008951F920F920FB60F9211246F927F92B9
S11307A08F929F92AF92BF92CF92DF92EF92FF927D
S11307B00F931F932F933F934F935F936F937F9365
S11307C08F939F93AF93BF93CF93DF93EF93FF9355
S11307D0F8940E9484038A3209F017C10E94B4017C
S11307E024E040E06CE085E491E00E94C30120E055
S11307F041E06FE082E591E00E94C3010E9484031E
S11308008823E1F3833231F0282F30E0213331059E
S113081031F417C00E94B4010E94F101F7C02233E1
S1130820310549F02333310549F02433310531F7DB
S113083003E010E008C001E010E005C002E010E0B1
S113084002C000E010E0809399012FE041E061E0F4
S113085089E991E00E94C30120E042E06AE082E677
S113086091E00E94C3012FE986E891E02150804085
S11308709040E1F700C000000F2EF9E9EF2EF1E0FF
S1130880FF2EF02DC0E001C0CD2F0E94840390ED17
S1130890980F9A30C8F4D1E0DC0FF70181937F01FF
S11308A02AE02C0F42E061E08DE691E00E94C30152
S11308B0FFE926E881E0F15020408040E1F700C0E4
S11308C00000D43009F702C0C430F8F2F801EE0F8A
S11308D0FF1FEE0FFF1FE00FF11FEE54FE4F638169
S11308E0748144E089E991E00E94AE00811115C051
S11308F020E043E064E18FE691E00E94C3019FE7BA
S1130900EAE1F6E09150E040F040E1F700C0000079
S11309100E94B4010E94F10179C020E043E064E147
S113092084E891E00E94C30110923A0181E080932F
S11309304401F801EE0FFF1FEE0FFF1FE00FF11F40
S1130940EE54FE4F808180FB992490F880FD03C013
S11309508BE391E002C081E391E028E043E06AE0A8
S11309600E94C30188248394C801880F991F880FAB
S1130970991F080F191FC8018E549E4F6C01F8016E
S1130980ED54FE4F7F01E801CC54DE4F0F2EF1E30E
S1130990AF2EF1E0BF2EF02D0BE311E0712C0E947D
S11309A084038823E1F3833229F40E94B4010E9472
S11309B0F1012CC08A3299F7882D9110872D682E69
S11309C0F601908180FB90F99083F701908180FB80
S11309D090F99083988180FB90F99883992019F07D
S11309E0802F912F02C08A2D9B2D28E043E06AE0DE
S11309F00E94C301FFE52AEE80E0F15020408040D0
S1130A00E1F700C00000962CCACF7894FF91EF91D3
S1130A10DF91CF91BF91AF919F918F917F916F9112
S1130A205F914F913F912F911F910F91FF90EF9004
S1130A30DF90CF90BF90AF909F908F907F906F90FA
S1110A400F900FBE0F901F901895F894FFCFE3
S1130A4E313233310031323332003132333300310B
S1130A5E323334002D524D3A2D2C20443A2D2C2075
S1130A6E573A2D2C204D3A2D004F00430059004E7D
S1130A7E004C4F434B454420202000554E4C4F43D1
S1130A8E4B454420002D5365747570206D6F64655D
S1130A9E2D0043686F6F7365206120726F6F6D3A1E
S1130AAE200050617373776F72643A20002A00201D
S1130ABE496E636F72726563742070617373776FBE
S1130ACE726420005374617475733A2020202020C0
S1130ADE202020202020202020001C1C1C1C001C58
S1130AEE1C1C0E11101F1F1B1F000E11111F1F1B8C
S1050AFE1F00D3
S9030000FC
